{
  "contractName": "ArtPerpet",
  "abi": [
    {
      "constant": true,
      "inputs": [],
      "name": "devAmount",
      "outputs": [
        {
          "name": "",
          "type": "uint256"
        }
      ],
      "payable": false,
      "stateMutability": "view",
      "type": "function"
    },
    {
      "constant": true,
      "inputs": [],
      "name": "devOwner",
      "outputs": [
        {
          "name": "",
          "type": "address"
        }
      ],
      "payable": false,
      "stateMutability": "view",
      "type": "function"
    },
    {
      "constant": true,
      "inputs": [
        {
          "name": "",
          "type": "address"
        }
      ],
      "name": "highestBid",
      "outputs": [
        {
          "name": "",
          "type": "uint256"
        }
      ],
      "payable": false,
      "stateMutability": "view",
      "type": "function"
    },
    {
      "constant": true,
      "inputs": [
        {
          "name": "",
          "type": "address"
        }
      ],
      "name": "bidder",
      "outputs": [
        {
          "name": "",
          "type": "address"
        }
      ],
      "payable": false,
      "stateMutability": "view",
      "type": "function"
    },
    {
      "constant": true,
      "inputs": [
        {
          "name": "",
          "type": "address"
        }
      ],
      "name": "artHash",
      "outputs": [
        {
          "name": "",
          "type": "string"
        }
      ],
      "payable": false,
      "stateMutability": "view",
      "type": "function"
    },
    {
      "constant": true,
      "inputs": [],
      "name": "charity",
      "outputs": [
        {
          "name": "",
          "type": "address"
        }
      ],
      "payable": false,
      "stateMutability": "view",
      "type": "function"
    },
    {
      "constant": true,
      "inputs": [],
      "name": "bidTime",
      "outputs": [
        {
          "name": "",
          "type": "uint256"
        }
      ],
      "payable": false,
      "stateMutability": "view",
      "type": "function"
    },
    {
      "constant": true,
      "inputs": [],
      "name": "charityAmount",
      "outputs": [
        {
          "name": "",
          "type": "uint256"
        }
      ],
      "payable": false,
      "stateMutability": "view",
      "type": "function"
    },
    {
      "constant": true,
      "inputs": [],
      "name": "artistAmount",
      "outputs": [
        {
          "name": "",
          "type": "uint256"
        }
      ],
      "payable": false,
      "stateMutability": "view",
      "type": "function"
    },
    {
      "inputs": [],
      "payable": false,
      "stateMutability": "nonpayable",
      "type": "constructor"
    },
    {
      "constant": false,
      "inputs": [
        {
          "name": "artHashIn",
          "type": "string"
        }
      ],
      "name": "setArtHash",
      "outputs": [],
      "payable": false,
      "stateMutability": "nonpayable",
      "type": "function"
    },
    {
      "constant": false,
      "inputs": [
        {
          "name": "artist",
          "type": "address"
        }
      ],
      "name": "placeBid",
      "outputs": [],
      "payable": false,
      "stateMutability": "nonpayable",
      "type": "function"
    },
    {
      "constant": false,
      "inputs": [
        {
          "name": "artHashToCheck",
          "type": "string"
        }
      ],
      "name": "awardBid",
      "outputs": [],
      "payable": true,
      "stateMutability": "payable",
      "type": "function"
    },
    {
      "constant": false,
      "inputs": [],
      "name": "withdraw",
      "outputs": [],
      "payable": false,
      "stateMutability": "nonpayable",
      "type": "function"
    }
  ],
  "bytecode": "0x608060405262093a806007556001600855605a6009556009600a5534801561002657600080fd5b5033600160006101000a81548173ffffffffffffffffffffffffffffffffffffffff021916908373ffffffffffffffffffffffffffffffffffffffff160217905550610c4c806100776000396000f3006080604052600436106100c5576000357c0100000000000000000000000000000000000000000000000000000000900463ffffffff1680631d3a1906146100ca5780632b345964146101335780632b7278921461015e5780633ccfd60b146101b5578063530ac6ad146101cc578063580429581461022357806366f99257146102a6578063934aa02314610362578063c120d931146103b9578063d4c8d90d146103e4578063dbc945c014610440578063e49401571461046b578063e7cd394a146104ae575b600080fd5b3480156100d657600080fd5b50610131600480360381019080803590602001908201803590602001908080601f01602080910402602001604051908101604052809392919081815260200183838082843782019150505050505091929192905050506104d9565b005b34801561013f57600080fd5b50610148610573565b6040518082815260200191505060405180910390f35b34801561016a57600080fd5b50610173610579565b604051808273ffffffffffffffffffffffffffffffffffffffff1673ffffffffffffffffffffffffffffffffffffffff16815260200191505060405180910390f35b3480156101c157600080fd5b506101ca61059f565b005b3480156101d857600080fd5b5061020d600480360381019080803573ffffffffffffffffffffffffffffffffffffffff169060200190929190505050610672565b6040518082815260200191505060405180910390f35b34801561022f57600080fd5b50610264600480360381019080803573ffffffffffffffffffffffffffffffffffffffff16906020019092919050505061068a565b604051808273ffffffffffffffffffffffffffffffffffffffff1673ffffffffffffffffffffffffffffffffffffffff16815260200191505060405180910390f35b3480156102b257600080fd5b506102e7600480360381019080803573ffffffffffffffffffffffffffffffffffffffff1690602001909291905050506106bd565b6040518080602001828103825283818151815260200191508051906020019080838360005b8381101561032757808201518184015260208101905061030c565b50505050905090810190601f1680156103545780820380516001836020036101000a031916815260200191505b509250505060405180910390f35b34801561036e57600080fd5b5061037761076d565b604051808273ffffffffffffffffffffffffffffffffffffffff1673ffffffffffffffffffffffffffffffffffffffff16815260200191505060405180910390f35b3480156103c557600080fd5b506103ce610793565b6040518082815260200191505060405180910390f35b61043e600480360381019080803590602001908201803590602001908080601f0160208091040260200160405190810160405280939291908181526020018383808284378201915050505050509192919290505050610799565b005b34801561044c57600080fd5b50610455610a12565b6040518082815260200191505060405180910390f35b34801561047757600080fd5b506104ac600480360381019080803573ffffffffffffffffffffffffffffffffffffffff169060200190929190505050610a18565b005b3480156104ba57600080fd5b506104c3610b75565b6040518082815260200191505060405180910390f35b806000803373ffffffffffffffffffffffffffffffffffffffff1673ffffffffffffffffffffffffffffffffffffffff168152602001908152602001600020908051906020019061052b929190610b7b565b5042600660003373ffffffffffffffffffffffffffffffffffffffff1673ffffffffffffffffffffffffffffffffffffffff1681526020019081526020016000208190555050565b60085481565b600160009054906101000a900473ffffffffffffffffffffffffffffffffffffffff1681565b6000600560003373ffffffffffffffffffffffffffffffffffffffff1673ffffffffffffffffffffffffffffffffffffffff1681526020019081526020016000205490506000600560003373ffffffffffffffffffffffffffffffffffffffff1673ffffffffffffffffffffffffffffffffffffffff168152602001908152602001600020819055503373ffffffffffffffffffffffffffffffffffffffff166108fc829081150290604051600060405180830381858888f1935050505015801561066e573d6000803e3d6000fd5b5050565b60046020528060005260406000206000915090505481565b60036020528060005260406000206000915054906101000a900473ffffffffffffffffffffffffffffffffffffffff1681565b60006020528060005260406000206000915090508054600181600116156101000203166002900480601f0160208091040260200160405190810160405280929190818152602001828054600181600116156101000203166002900480156107655780601f1061073a57610100808354040283529160200191610765565b820191906000526020600020905b81548152906001019060200180831161074857829003601f168201915b505050505081565b600260009054906101000a900473ffffffffffffffffffffffffffffffffffffffff1681565b60075481565b8042600754600660003373ffffffffffffffffffffffffffffffffffffffff1673ffffffffffffffffffffffffffffffffffffffff168152602001908152602001600020540142101515610a0d57600460003373ffffffffffffffffffffffffffffffffffffffff1673ffffffffffffffffffffffffffffffffffffffff168152602001908152602001600020546008540260056000600160009054906101000a900473ffffffffffffffffffffffffffffffffffffffff1673ffffffffffffffffffffffffffffffffffffffff1673ffffffffffffffffffffffffffffffffffffffff16815260200190815260200160002081905550600460003373ffffffffffffffffffffffffffffffffffffffff1673ffffffffffffffffffffffffffffffffffffffff16815260200190815260200160002054600a5402600560003373ffffffffffffffffffffffffffffffffffffffff1673ffffffffffffffffffffffffffffffffffffffff16815260200190815260200160002081905550600460003373ffffffffffffffffffffffffffffffffffffffff1673ffffffffffffffffffffffffffffffffffffffff168152602001908152602001600020546009540260056000600260009054906101000a900473ffffffffffffffffffffffffffffffffffffffff1673ffffffffffffffffffffffffffffffffffffffff1673ffffffffffffffffffffffffffffffffffffffff168152602001908152602001600020819055506109c861059f565b42600660003373ffffffffffffffffffffffffffffffffffffffff1673ffffffffffffffffffffffffffffffffffffffff168152602001908152602001600020819055505b505050565b60095481565b42600754600660003373ffffffffffffffffffffffffffffffffffffffff1673ffffffffffffffffffffffffffffffffffffffff1681526020019081526020016000205401421015610b715733600460008273ffffffffffffffffffffffffffffffffffffffff1673ffffffffffffffffffffffffffffffffffffffff16815260200190815260200160002054341115610b6f5733600360008573ffffffffffffffffffffffffffffffffffffffff1673ffffffffffffffffffffffffffffffffffffffff16815260200190815260200160002060006101000a81548173ffffffffffffffffffffffffffffffffffffffff021916908373ffffffffffffffffffffffffffffffffffffffff16021790555034600460008573ffffffffffffffffffffffffffffffffffffffff1673ffffffffffffffffffffffffffffffffffffffff168152602001908152602001600020819055505b505b5050565b600a5481565b828054600181600116156101000203166002900490600052602060002090601f016020900481019282601f10610bbc57805160ff1916838001178555610bea565b82800160010185558215610bea579182015b82811115610be9578251825591602001919060010190610bce565b5b509050610bf79190610bfb565b5090565b610c1d91905b80821115610c19576000816000905550600101610c01565b5090565b905600a165627a7a72305820760c7ef312a48c384e15b5d1ea7d8470ec3094abd0ae7b0344d91dab2bdf100e0029",
  "source": "pragma solidity >=0.4.21 <0.6.0;\n\ncontract ArtPerpet {\n\n  mapping(address => string) public artHash;\n  address public devOwner;\n  address public charity;\n  mapping(address =>address) public bidder;\n  mapping(address =>uint) public highestBid;\n  mapping (address => uint) pendingWithdraws;\n  mapping(address => uint) creationTime;\n  uint public bidTime = 1 weeks;\n  uint public devAmount = 1;\n  uint public charityAmount = 90;\n  uint public artistAmount = 9;\n\n  constructor() public {\n    devOwner = msg.sender;\n  }\n\n  function setArtHash(string artHashIn){\n    artHash[msg.sender] = artHashIn;\n    creationTime[msg.sender] = now;\n  }\n\n  function placeBid(address artist) public checkTimeGo(now) checkBid(msg.sender){\n      // Return eth to the previous bidder    \n      // set new highest bidder addr to msg.sender if checkBid is true\n      bidder[artist] = msg.sender;\n      // Set the bid\n      highestBid[artist] = msg.value;\n    }\n\n  // Bidding is over\n  function awardBid (string artHashToCheck) public payable checkArtist(artHashToCheck) checkTimeStop(now){ \n    pendingWithdraws[devOwner] = (devAmount * highestBid[msg.sender]);\n    pendingWithdraws[msg.sender] = (artistAmount * highestBid[msg.sender]);\n    pendingWithdraws[charity] = (charityAmount * highestBid[msg.sender]);\n    withdraw();  \n    // Send to NFT contract\n    // send funds to charity address\n    // reset timer\n    creationTime[msg.sender] = now;\n  }\n\n  //Standard Withdraw function\n  function withdraw() public {\n    uint amount = pendingWithdraws[msg.sender];\n    pendingWithdraws[msg.sender] = 0;\n    msg.sender.transfer(amount);\n  }\n  \n  // check the time to see if it's over the limit\n  modifier checkTimeStop(uint _time) { \n    if(now >= (creationTime[msg.sender] + bidTime)){\n      //stop bidding\n      _; \n    }\n  }\n\n  modifier checkTimeGo(uint _time) { \n    if(now < (creationTime[msg.sender] + bidTime)){\n      //stop bidding\n      _; \n    }\n  }\n  // Check to see if the bid is higher than the current one on file\n  modifier checkBid(address artist) { \n        if(msg.value > highestBid[artist]){\n          _; \n        }\n  }\n  // Check to see if it's an artist\n  modifier checkArtist(string artHashCheck) { \n        /*if((artHash[msg.sender] = artHashCheck)){\n          _; \n        }*/\n        _;\n  }\n  modifier onlyOwner{ \n    require (\n      msg.sender == devOwner,\n      \"Only owner can call this function\"\n      ); \n    _;\n  }\n}\n  ",
  "sourcePath": "/home/sam/Projects/perpetual_art_contract/contracts/ArtPerpet.sol",
  "compiler": {
    "name": "solc",
    "version": "0.4.25+commit.59dbf8f1.Emscripten.clang"
  },
  "schemaVersion": "2.0.2",
  "updatedAt": "2019-03-05T00:39:48.252Z"
}